{
    "contractName": "KYCVerification",
    "abi": [
        {
            "anonymous": false,
            "inputs": [
                {
                    "indexed": true,
                    "internalType": "string",
                    "name": "aadharNumber",
                    "type": "string"
                },
                {
                    "indexed": false,
                    "internalType": "string",
                    "name": "ipfsHash",
                    "type": "string"
                },
                {
                    "indexed": false,
                    "internalType": "bool",
                    "name": "verified",
                    "type": "bool"
                }
            ],
            "name": "UserVerified",
            "type": "event"
        },
        {
            "inputs": [
                {
                    "internalType": "string",
                    "name": "aadharNumber",
                    "type": "string"
                },
                {
                    "internalType": "string",
                    "name": "ipfsHash",
                    "type": "string"
                }
            ],
            "name": "verifyUser",
            "outputs": [],
            "stateMutability": "nonpayable",
            "type": "function"
        },
        {
            "inputs": [
                {
                    "internalType": "string",
                    "name": "aadharNumber",
                    "type": "string"
                }
            ],
            "name": "isUserVerified",
            "outputs": [
                {
                    "internalType": "bool",
                    "name": "",
                    "type": "bool"
                }
            ],
            "stateMutability": "view",
            "type": "function",
            "constant": true
        },
        {
            "inputs": [
                {
                    "internalType": "string",
                    "name": "aadharNumber",
                    "type": "string"
                }
            ],
            "name": "getUserIPFSHash",
            "outputs": [
                {
                    "internalType": "string",
                    "name": "",
                    "type": "string"
                }
            ],
            "stateMutability": "view",
            "type": "function",
            "constant": true
        }
    ],
    "bytecode": "0x608060405234801561001057600080fd5b506105d2806100206000396000f3fe608060405234801561001057600080fd5b50600436106100415760003560e01c8063137d5eda146100465780633f360b411461006f5780638219f94e14610084575b600080fd5b61005961005436600461040b565b6100a7565b60405161006691906104a4565b60405180910390f35b61008261007d3660046104be565b6101c7565b005b61009761009236600461040b565b6102a2565b6040519015158152602001610066565b60606000826040516100b99190610522565b9081526040519081900360200190206002015460ff166101165760405162461bcd60e51b8152602060048201526014602482015273155cd95c881a5cc81b9bdd081d995c9a599a595960621b604482015260640160405180910390fd5b6000826040516101269190610522565b908152602001604051809103902060010180546101429061053e565b80601f016020809104026020016040519081016040528092919081815260200182805461016e9061053e565b80156101bb5780601f10610190576101008083540402835291602001916101bb565b820191906000526020600020905b81548152906001019060200180831161019e57829003601f168201915b50505050509050919050565b604080516060810182528381526020810183905260018183015290516000906101f1908590610522565b9081526020016040518091039020600082015181600001908051906020019061021b9291906102cf565b50602082810151805161023492600185019201906102cf565b50604091820151600291909101805460ff19169115159190911790555161025c908390610522565b60405180910390207fd92bc4dc1c6a061350e214f318fa8ab25649a2f6b066cd65747ec4f9c1200f8d826001604051610296929190610578565b60405180910390a25050565b600080826040516102b39190610522565b9081526040519081900360200190206002015460ff1692915050565b8280546102db9061053e565b90600052602060002090601f0160209004810192826102fd5760008555610343565b82601f1061031657805160ff1916838001178555610343565b82800160010185558215610343579182015b82811115610343578251825591602001919060010190610328565b5061034f929150610353565b5090565b5b8082111561034f5760008155600101610354565b634e487b7160e01b600052604160045260246000fd5b600082601f83011261038f57600080fd5b813567ffffffffffffffff808211156103aa576103aa610368565b604051601f8301601f19908116603f011681019082821181831017156103d2576103d2610368565b816040528381528660208588010111156103eb57600080fd5b836020870160208301376000602085830101528094505050505092915050565b60006020828403121561041d57600080fd5b813567ffffffffffffffff81111561043457600080fd5b6104408482850161037e565b949350505050565b60005b8381101561046357818101518382015260200161044b565b83811115610472576000848401525b50505050565b60008151808452610490816020860160208601610448565b601f01601f19169290920160200192915050565b6020815260006104b76020830184610478565b9392505050565b600080604083850312156104d157600080fd5b823567ffffffffffffffff808211156104e957600080fd5b6104f58683870161037e565b9350602085013591508082111561050b57600080fd5b506105188582860161037e565b9150509250929050565b60008251610534818460208701610448565b9190910192915050565b600181811c9082168061055257607f821691505b60208210810361057257634e487b7160e01b600052602260045260246000fd5b50919050565b60408152600061058b6040830185610478565b90508215156020830152939250505056fea2646970667358221220e0ef9e4512aeaa79875bc6f003c11be77d7f803644b276d94477ddc469e5034364736f6c634300080d0033",
    "immutableReferences": {},
    "source": "// SPDX-License-Identifier: MIT\npragma solidity ^0.8.13;\n\ncontract KYCVerification {\n    struct User {\n        string aadharNumber;\n        string ipfsHash; // Storing IPFS hash\n        bool isVerified;\n    }\n\n    mapping(string => User) private users;\n\n    event UserVerified(string indexed aadharNumber, string ipfsHash, bool verified);\n\n    function verifyUser(string memory aadharNumber, string memory ipfsHash) public {\n        // Store user details and mark them as verified\n        users[aadharNumber] = User(aadharNumber, ipfsHash, true);\n        emit UserVerified(aadharNumber, ipfsHash, true);\n    }\n\n    function isUserVerified(string memory aadharNumber) public view returns (bool) {\n        return users[aadharNumber].isVerified;\n    }\n\n    function getUserIPFSHash(string memory aadharNumber) public view returns (string memory) {\n        require(users[aadharNumber].isVerified, \"User is not verified\");\n        return users[aadharNumber].ipfsHash;\n    }\n}\n",
    "sourcePath": "/home/varunharsha/Desktop/Project/contracts/KYCVerification.sol",
    "compiler": {
        "name": "solc",
        "version": "0.8.13+commit.abaa5c0e.Emscripten.clang"
    },
    "schemaVersion": "3.4.16",
    "updatedAt": "2024-10-19T23:06:49.659Z",
    "networkType": "ethereum",
    "devdoc": {
        "kind": "dev",
        "methods": {},
        "version": 1
    },
    "userdoc": {
        "kind": "user",
        "methods": {},
        "version": 1
    }
}