{
  "contractName": "KYCVerification",
  "abi": [
    {
      "inputs": [],
      "stateMutability": "nonpayable",
      "type": "constructor"
    },
    {
      "anonymous": false,
      "inputs": [
        {
          "indexed": true,
          "internalType": "address",
          "name": "user",
          "type": "address"
        },
        {
          "indexed": false,
          "internalType": "string",
          "name": "aadharNumber",
          "type": "string"
        }
      ],
      "name": "UserVerified",
      "type": "event"
    },
    {
      "anonymous": false,
      "inputs": [
        {
          "indexed": true,
          "internalType": "address",
          "name": "user",
          "type": "address"
        },
        {
          "indexed": false,
          "internalType": "string",
          "name": "aadharNumber",
          "type": "string"
        }
      ],
      "name": "VerificationRequested",
      "type": "event"
    },
    {
      "inputs": [],
      "name": "admin",
      "outputs": [
        {
          "internalType": "address",
          "name": "",
          "type": "address"
        }
      ],
      "stateMutability": "view",
      "type": "function",
      "constant": true
    },
    {
      "inputs": [
        {
          "internalType": "address",
          "name": "",
          "type": "address"
        }
      ],
      "name": "users",
      "outputs": [
        {
          "internalType": "string",
          "name": "aadharNumber",
          "type": "string"
        },
        {
          "internalType": "string",
          "name": "name",
          "type": "string"
        },
        {
          "internalType": "uint256",
          "name": "dob",
          "type": "uint256"
        },
        {
          "internalType": "bool",
          "name": "isVerified",
          "type": "bool"
        }
      ],
      "stateMutability": "view",
      "type": "function",
      "constant": true
    },
    {
      "inputs": [
        {
          "internalType": "string",
          "name": "aadharNumber",
          "type": "string"
        },
        {
          "internalType": "string",
          "name": "name",
          "type": "string"
        },
        {
          "internalType": "uint256",
          "name": "dob",
          "type": "uint256"
        }
      ],
      "name": "requestVerification",
      "outputs": [],
      "stateMutability": "nonpayable",
      "type": "function"
    },
    {
      "inputs": [
        {
          "internalType": "address",
          "name": "userAddress",
          "type": "address"
        }
      ],
      "name": "verifyUser",
      "outputs": [],
      "stateMutability": "nonpayable",
      "type": "function"
    },
    {
      "inputs": [
        {
          "internalType": "address",
          "name": "userAddress",
          "type": "address"
        }
      ],
      "name": "isUserVerified",
      "outputs": [
        {
          "internalType": "bool",
          "name": "",
          "type": "bool"
        }
      ],
      "stateMutability": "view",
      "type": "function",
      "constant": true
    }
  ],
  "bytecode": "0x608060405234801561001057600080fd5b50600180546001600160a01b0319163317905561088a806100326000396000f3fe608060405234801561001057600080fd5b50600436106100575760003560e01c80634d8131201461005c578063a87430ba14610071578063ace417e01461009d578063cd9f6a47146100dc578063f851a440146100ef575b600080fd5b61006f61006a366004610595565b61011a565b005b61008461007f366004610595565b610250565b6040516100949493929190610612565b60405180910390f35b6100cc6100ab366004610595565b6001600160a01b031660009081526020819052604090206003015460ff1690565b6040519015158152602001610094565b61006f6100ea3660046106f3565b61038c565b600154610102906001600160a01b031681565b6040516001600160a01b039091168152602001610094565b6001546001600160a01b031633146101795760405162461bcd60e51b815260206004820152601b60248201527f4f6e6c792061646d696e2063616e20766572696679207573657273000000000060448201526064015b60405180910390fd5b6001600160a01b03811660009081526020819052604081206002015490036101ef5760405162461bcd60e51b815260206004820152602360248201527f5573657220686173206e6f74207265717565737465642076657269666963617460448201526234b7b760e91b6064820152608401610170565b6001600160a01b0381166000818152602081905260409081902060038101805460ff1916600117905590517fb9a56ef3335a4b13b2aa51519b56125ab2316b50d587ad80edfce74fe9a4b7d3916102459161079a565b60405180910390a250565b60006020819052908152604090208054819061026b90610760565b80601f016020809104026020016040519081016040528092919081815260200182805461029790610760565b80156102e45780601f106102b9576101008083540402835291602001916102e4565b820191906000526020600020905b8154815290600101906020018083116102c757829003601f168201915b5050505050908060010180546102f990610760565b80601f016020809104026020016040519081016040528092919081815260200182805461032590610760565b80156103725780601f1061034757610100808354040283529160200191610372565b820191906000526020600020905b81548152906001019060200180831161035557829003601f168201915b50505050600283015460039093015491929160ff16905084565b82516010146103dd5760405162461bcd60e51b815260206004820152601f60248201527f416164686172206e756d626572206d75737420626520313620646967697473006044820152606401610170565b336000908152602081905260409020600201541561043d5760405162461bcd60e51b815260206004820152601e60248201527f566572696669636174696f6e20616c72656164792072657175657374656400006044820152606401610170565b60408051608081018252848152602080820185905281830184905260006060830181905233815280825292909220815180519293919261048092849201906104fc565b50602082810151805161049992600185019201906104fc565b5060408281015160028301556060909201516003909101805460ff19169115159190911790555133907f3e88386275b9210d2542c58c3bb829eaff9aa4e1319632dc33df14060f294cac906104ef908690610841565b60405180910390a2505050565b82805461050890610760565b90600052602060002090601f01602090048101928261052a5760008555610570565b82601f1061054357805160ff1916838001178555610570565b82800160010185558215610570579182015b82811115610570578251825591602001919060010190610555565b5061057c929150610580565b5090565b5b8082111561057c5760008155600101610581565b6000602082840312156105a757600080fd5b81356001600160a01b03811681146105be57600080fd5b9392505050565b6000815180845260005b818110156105eb576020818501810151868301820152016105cf565b818111156105fd576000602083870101525b50601f01601f19169290920160200192915050565b60808152600061062560808301876105c5565b828103602084015261063781876105c5565b6040840195909552505090151560609091015292915050565b634e487b7160e01b600052604160045260246000fd5b600082601f83011261067757600080fd5b813567ffffffffffffffff8082111561069257610692610650565b604051601f8301601f19908116603f011681019082821181831017156106ba576106ba610650565b816040528381528660208588010111156106d357600080fd5b836020870160208301376000602085830101528094505050505092915050565b60008060006060848603121561070857600080fd5b833567ffffffffffffffff8082111561072057600080fd5b61072c87838801610666565b9450602086013591508082111561074257600080fd5b5061074f86828701610666565b925050604084013590509250925092565b600181811c9082168061077457607f821691505b60208210810361079457634e487b7160e01b600052602260045260246000fd5b50919050565b600060208083526000845481600182811c9150808316806107bc57607f831692505b85831081036107d957634e487b7160e01b85526022600452602485fd5b8786018381526020018180156107f6576001811461080757610832565b60ff19861682528782019650610832565b60008b81526020902060005b8681101561082c57815484820152908501908901610813565b83019750505b50949998505050505050505050565b6020815260006105be60208301846105c556fea26469706673582212209cd00b78b9d98c832a62d3236b1cee8dd8ab36dba3ad0c46ab363876e8a81cef64736f6c634300080d0033",
  "immutableReferences": {},
  "source": "// SPDX-License-Identifier: MIT\npragma solidity ^0.8.13;\n\ncontract KYCVerification {\n    struct User {\n        string aadharNumber;\n        string name;\n        uint256 dob; // Date of Birth as timestamp\n        bool isVerified;\n    }\n\n    mapping(address => User) public users;\n    address public admin;\n\n    event VerificationRequested(address indexed user, string aadharNumber);\n    event UserVerified(address indexed user, string aadharNumber);\n\n    constructor() {\n        admin = msg.sender; // The account deploying the contract is the admin\n    }\n\n    // Function for users to request verification\n    function requestVerification(string memory aadharNumber, string memory name, uint256 dob) public {\n        require(bytes(aadharNumber).length == 16, \"Aadhar number must be 16 digits\");\n        require(users[msg.sender].dob == 0, \"Verification already requested\");\n        \n        users[msg.sender] = User(aadharNumber, name, dob, false);\n        emit VerificationRequested(msg.sender, aadharNumber);\n    }\n\n    // Admin function to verify a user\n    function verifyUser(address userAddress) public {\n        require(msg.sender == admin, \"Only admin can verify users\");\n        require(users[userAddress].dob != 0, \"User has not requested verification\");\n        \n        users[userAddress].isVerified = true;\n        emit UserVerified(userAddress, users[userAddress].aadharNumber);\n    }\n\n    // Function to check if a user is verified\n    function isUserVerified(address userAddress) public view returns (bool) {\n        return users[userAddress].isVerified;\n    }\n}\n",
  "sourcePath": "/home/varunharsha/Desktop/Project/contracts/KYCVerification.sol",
  "compiler": {
    "name": "solc",
    "version": "0.8.13+commit.abaa5c0e.Emscripten.clang"
  },
  "schemaVersion": "3.4.16",
  "updatedAt": "2024-10-19T23:46:37.829Z",
  "networkType": "ethereum",
  "devdoc": {
    "kind": "dev",
    "methods": {},
    "version": 1
  },
  "userdoc": {
    "kind": "user",
    "methods": {},
    "version": 1
  }
}