{
    "contractName": "KYCVerification",
    "abi": [
        {
            "anonymous": false,
            "inputs": [
                {
                    "indexed": true,
                    "internalType": "string",
                    "name": "aadharNumber",
                    "type": "string"
                },
                {
                    "indexed": false,
                    "internalType": "bool",
                    "name": "verified",
                    "type": "bool"
                }
            ],
            "name": "UserVerified",
            "type": "event"
        },
        {
            "inputs": [
                {
                    "internalType": "string",
                    "name": "aadharNumber",
                    "type": "string"
                }
            ],
            "name": "verifyUser",
            "outputs": [],
            "stateMutability": "nonpayable",
            "type": "function"
        },
        {
            "inputs": [
                {
                    "internalType": "string",
                    "name": "aadharNumber",
                    "type": "string"
                }
            ],
            "name": "isUserVerified",
            "outputs": [
                {
                    "internalType": "bool",
                    "name": "",
                    "type": "bool"
                }
            ],
            "stateMutability": "view",
            "type": "function",
            "constant": true
        }
    ],
    "bytecode": "0x608060405234801561000f575f80fd5b506103bb8061001d5f395ff3fe608060405234801561000f575f80fd5b5060043610610034575f3560e01c80638219f94e14610038578063e600c81714610068575b5f80fd5b610052600480360381019061004d9190610289565b610084565b60405161005f91906102ea565b60405180910390f35b610082600480360381019061007d9190610289565b6100b6565b005b5f8082604051610094919061036f565b90815260200160405180910390205f9054906101000a900460ff169050919050565b60015f826040516100c7919061036f565b90815260200160405180910390205f6101000a81548160ff021916908315150217905550806040516100f9919061036f565b60405180910390207f83342461e04f8632cfb66d1d362614e44ec7202222441494d18d7f3b96e830c3600160405161013191906102ea565b60405180910390a250565b5f604051905090565b5f80fd5b5f80fd5b5f80fd5b5f80fd5b5f601f19601f8301169050919050565b7f4e487b71000000000000000000000000000000000000000000000000000000005f52604160045260245ffd5b61019b82610155565b810181811067ffffffffffffffff821117156101ba576101b9610165565b5b80604052505050565b5f6101cc61013c565b90506101d88282610192565b919050565b5f67ffffffffffffffff8211156101f7576101f6610165565b5b61020082610155565b9050602081019050919050565b828183375f83830152505050565b5f61022d610228846101dd565b6101c3565b90508281526020810184848401111561024957610248610151565b5b61025484828561020d565b509392505050565b5f82601f8301126102705761026f61014d565b5b813561028084826020860161021b565b91505092915050565b5f6020828403121561029e5761029d610145565b5b5f82013567ffffffffffffffff8111156102bb576102ba610149565b5b6102c78482850161025c565b91505092915050565b5f8115159050919050565b6102e4816102d0565b82525050565b5f6020820190506102fd5f8301846102db565b92915050565b5f81519050919050565b5f81905092915050565b5f5b83811015610334578082015181840152602081019050610319565b5f8484015250505050565b5f61034982610303565b610353818561030d565b9350610363818560208601610317565b80840191505092915050565b5f61037a828461033f565b91508190509291505056fea2646970667358221220328174c85f0be11cae4a955d018b3550e4b08dda88dd17e44d78ce7912121e1764736f6c63430008150033",
    "immutableReferences": {},
    "source": "// SPDX-License-Identifier: MIT\npragma solidity ^0.8.13;\n\ncontract KYCVerification {\n    mapping(string => bool) private verifiedUsers;\n\n    event UserVerified(string indexed aadharNumber, bool verified);\n\n    function verifyUser(string memory aadharNumber) public {\n        // Mark user as verified\n        verifiedUsers[aadharNumber] = true;\n        emit UserVerified(aadharNumber, true);\n    }\n\n    function isUserVerified(string memory aadharNumber) public view returns (bool) {\n        return verifiedUsers[aadharNumber];\n    }\n}\n",
    "sourcePath": "/home/varunharsha/Desktop/Project/contracts/KYCVerification.sol",
    "compiler": {
        "name": "solc",
        "version": "0.8.21+commit.d9974bed.Emscripten.clang"
    },
    "schemaVersion": "3.4.16",
    "updatedAt": "2024-10-19T20:52:43.347Z",
    "networkType": "ethereum",
    "devdoc": {
        "kind": "dev",
        "methods": {},
        "version": 1
    },
    "userdoc": {
        "kind": "user",
        "methods": {},
        "version": 1
    }
}