{
  "contractName": "KYCVerification",
  "abi": [
    {
      "inputs": [],
      "stateMutability": "nonpayable",
      "type": "constructor"
    },
    {
      "anonymous": false,
      "inputs": [
        {
          "indexed": true,
          "internalType": "address",
          "name": "user",
          "type": "address"
        },
        {
          "indexed": false,
          "internalType": "string",
          "name": "aadharNumber",
          "type": "string"
        }
      ],
      "name": "UserVerified",
      "type": "event"
    },
    {
      "anonymous": false,
      "inputs": [
        {
          "indexed": true,
          "internalType": "address",
          "name": "user",
          "type": "address"
        },
        {
          "indexed": false,
          "internalType": "string",
          "name": "reason",
          "type": "string"
        }
      ],
      "name": "VerificationDenied",
      "type": "event"
    },
    {
      "anonymous": false,
      "inputs": [
        {
          "indexed": true,
          "internalType": "address",
          "name": "user",
          "type": "address"
        },
        {
          "indexed": false,
          "internalType": "string",
          "name": "aadharNumber",
          "type": "string"
        }
      ],
      "name": "VerificationRequested",
      "type": "event"
    },
    {
      "inputs": [],
      "name": "admin",
      "outputs": [
        {
          "internalType": "address",
          "name": "",
          "type": "address"
        }
      ],
      "stateMutability": "view",
      "type": "function",
      "constant": true
    },
    {
      "inputs": [
        {
          "internalType": "address",
          "name": "",
          "type": "address"
        }
      ],
      "name": "users",
      "outputs": [
        {
          "internalType": "string",
          "name": "aadharNumber",
          "type": "string"
        },
        {
          "internalType": "string",
          "name": "name",
          "type": "string"
        },
        {
          "internalType": "bool",
          "name": "isVerified",
          "type": "bool"
        }
      ],
      "stateMutability": "view",
      "type": "function",
      "constant": true
    },
    {
      "inputs": [
        {
          "internalType": "address",
          "name": "userAddress",
          "type": "address"
        }
      ],
      "name": "verifyUser",
      "outputs": [],
      "stateMutability": "nonpayable",
      "type": "function"
    },
    {
      "inputs": [
        {
          "internalType": "address",
          "name": "userAddress",
          "type": "address"
        },
        {
          "internalType": "string",
          "name": "reason",
          "type": "string"
        }
      ],
      "name": "denyVerification",
      "outputs": [],
      "stateMutability": "nonpayable",
      "type": "function"
    },
    {
      "inputs": [
        {
          "internalType": "address",
          "name": "userAddress",
          "type": "address"
        }
      ],
      "name": "isUserVerified",
      "outputs": [
        {
          "internalType": "bool",
          "name": "",
          "type": "bool"
        }
      ],
      "stateMutability": "view",
      "type": "function",
      "constant": true
    },
    {
      "inputs": [
        {
          "internalType": "address",
          "name": "userAddress",
          "type": "address"
        }
      ],
      "name": "getUserDetails",
      "outputs": [
        {
          "internalType": "string",
          "name": "",
          "type": "string"
        },
        {
          "internalType": "string",
          "name": "",
          "type": "string"
        },
        {
          "internalType": "bool",
          "name": "",
          "type": "bool"
        }
      ],
      "stateMutability": "view",
      "type": "function",
      "constant": true
    },
    {
      "inputs": [
        {
          "internalType": "address",
          "name": "userAddress",
          "type": "address"
        },
        {
          "internalType": "string",
          "name": "aadharNumber",
          "type": "string"
        },
        {
          "internalType": "string",
          "name": "name",
          "type": "string"
        }
      ],
      "name": "requestVerification",
      "outputs": [],
      "stateMutability": "nonpayable",
      "type": "function"
    }
  ],
  "bytecode": "0x608060405234801561001057600080fd5b50600180546001600160a01b03191633179055610cb1806100326000396000f3fe608060405234801561001057600080fd5b506004361061007d5760003560e01c8063a87430ba1161005b578063a87430ba146100bd578063ace417e0146100e8578063cc3d967b14610127578063f851a4401461013a57600080fd5b80633e092e45146100825780634d813120146100975780636f83b346146100aa575b600080fd5b610095610090366004610a1e565b610165565b005b6100956100a5366004610a92565b610398565b6100956100b8366004610ab4565b6104ba565b6100d06100cb366004610a92565b6105c0565b6040516100df93929190610b4f565b60405180910390f35b6101176100f6366004610a92565b6001600160a01b031660009081526020819052604090206002015460ff1690565b60405190151581526020016100df565b6100d0610135366004610a92565b6106f5565b60015461014d906001600160a01b031681565b6040516001600160a01b0390911681526020016100df565b336001600160a01b038416146101dc5760405162461bcd60e51b815260206004820152603160248201527f4f6e6c7920757365722063616e207265717565737420766572696669636174696044820152706f6e20666f72207468656d73656c76657360781b60648201526084015b60405180910390fd5b815160101461022d5760405162461bcd60e51b815260206004820152601f60248201527f416164686172206e756d626572206d757374206265203136206469676974730060448201526064016101d3565b60008151116102715760405162461bcd60e51b815260206004820152601060248201526f13985b59481a5cc81c995c5d5a5c995960821b60448201526064016101d3565b3360009081526020819052604090206002015460ff16156102ea5760405162461bcd60e51b815260206004820152602d60248201527f5573657220616c7265616479207665726966696564206f72207265717565737460448201526c20616c7265616479206d61646560981b60648201526084016101d3565b604080516060810182528381526020808201849052600082840181905233815280825292909220815180519293919261032692849201906108c6565b50602082810151805161033f92600185019201906108c6565b50604091820151600291909101805460ff19169115159190911790555133907f3e88386275b9210d2542c58c3bb829eaff9aa4e1319632dc33df14060f294cac9061038b908590610b87565b60405180910390a2505050565b6001546001600160a01b031633146103f25760405162461bcd60e51b815260206004820152601b60248201527f4f6e6c792061646d696e2063616e20766572696679207573657273000000000060448201526064016101d3565b6001600160a01b03811660009081526020819052604090206002015460ff16156104595760405162461bcd60e51b8152602060048201526018602482015277155cd95c881a5cc8185b1c9958591e481d995c9a599a595960421b60448201526064016101d3565b6001600160a01b0381166000818152602081905260409081902060028101805460ff1916600117905590517fb9a56ef3335a4b13b2aa51519b56125ab2316b50d587ad80edfce74fe9a4b7d3916104af91610bd4565b60405180910390a250565b6001546001600160a01b031633146105145760405162461bcd60e51b815260206004820181905260248201527f4f6e6c792061646d696e2063616e2064656e7920766572696669636174696f6e60448201526064016101d3565b6001600160a01b03821660009081526020819052604090206002015460ff161561057b5760405162461bcd60e51b8152602060048201526018602482015277155cd95c881a5cc8185b1c9958591e481d995c9a599a595960421b60448201526064016101d3565b816001600160a01b03167f0938bee6cda33db0e54ee8a717422cb1e5b3fb963f710a4707bb12561fc03d75826040516105b49190610b87565b60405180910390a25050565b6000602081905290815260409020805481906105db90610b9a565b80601f016020809104026020016040519081016040528092919081815260200182805461060790610b9a565b80156106545780601f1061062957610100808354040283529160200191610654565b820191906000526020600020905b81548152906001019060200180831161063757829003601f168201915b50505050509080600101805461066990610b9a565b80601f016020809104026020016040519081016040528092919081815260200182805461069590610b9a565b80156106e25780601f106106b7576101008083540402835291602001916106e2565b820191906000526020600020905b8154815290600101906020018083116106c557829003601f168201915b5050506002909301549192505060ff1683565b60015460609081906000906001600160a01b031633146107575760405162461bcd60e51b815260206004820181905260248201527f4f6e6c792061646d696e2063616e207669657720757365722064657461696c7360448201526064016101d3565b6001600160a01b03841660009081526020819052604080822081516060810190925280548290829061078890610b9a565b80601f01602080910402602001604051908101604052809291908181526020018280546107b490610b9a565b80156108015780601f106107d657610100808354040283529160200191610801565b820191906000526020600020905b8154815290600101906020018083116107e457829003601f168201915b5050505050815260200160018201805461081a90610b9a565b80601f016020809104026020016040519081016040528092919081815260200182805461084690610b9a565b80156108935780601f1061086857610100808354040283529160200191610893565b820191906000526020600020905b81548152906001019060200180831161087657829003601f168201915b50505091835250506002919091015460ff1615156020918201528151908201516040909201519097919650945092505050565b8280546108d290610b9a565b90600052602060002090601f0160209004810192826108f4576000855561093a565b82601f1061090d57805160ff191683800117855561093a565b8280016001018555821561093a579182015b8281111561093a57825182559160200191906001019061091f565b5061094692915061094a565b5090565b5b80821115610946576000815560010161094b565b80356001600160a01b038116811461097657600080fd5b919050565b634e487b7160e01b600052604160045260246000fd5b600082601f8301126109a257600080fd5b813567ffffffffffffffff808211156109bd576109bd61097b565b604051601f8301601f19908116603f011681019082821181831017156109e5576109e561097b565b816040528381528660208588010111156109fe57600080fd5b836020870160208301376000602085830101528094505050505092915050565b600080600060608486031215610a3357600080fd5b610a3c8461095f565b9250602084013567ffffffffffffffff80821115610a5957600080fd5b610a6587838801610991565b93506040860135915080821115610a7b57600080fd5b50610a8886828701610991565b9150509250925092565b600060208284031215610aa457600080fd5b610aad8261095f565b9392505050565b60008060408385031215610ac757600080fd5b610ad08361095f565b9150602083013567ffffffffffffffff811115610aec57600080fd5b610af885828601610991565b9150509250929050565b6000815180845260005b81811015610b2857602081850181015186830182015201610b0c565b81811115610b3a576000602083870101525b50601f01601f19169290920160200192915050565b606081526000610b626060830186610b02565b8281036020840152610b748186610b02565b9150508215156040830152949350505050565b602081526000610aad6020830184610b02565b600181811c90821680610bae57607f821691505b602082108103610bce57634e487b7160e01b600052602260045260246000fd5b50919050565b600060208083526000845481600182811c915080831680610bf657607f831692505b8583108103610c1357634e487b7160e01b85526022600452602485fd5b878601838152602001818015610c305760018114610c4157610c6c565b60ff19861682528782019650610c6c565b60008b81526020902060005b86811015610c6657815484820152908501908901610c4d565b83019750505b5094999850505050505050505056fea26469706673582212200a8d78ebfa0bced4cd546d600eb49aef1f4a9a75eedd956226b6d1c1518ccc5d64736f6c634300080d0033",
  "immutableReferences": {},
  "source": "// SPDX-License-Identifier: MIT\npragma solidity ^0.8.13;\n\ncontract KYCVerification {\n    struct User {\n        string aadharNumber;\n        string name;\n        bool isVerified;\n    }\n\n    mapping(address => User) public users; // Store users' information by their address\n    address public admin; // Admin address\n\n    event VerificationRequested(address indexed user, string aadharNumber);\n    event UserVerified(address indexed user, string aadharNumber);\n    event VerificationDenied(address indexed user, string reason);\n\n    constructor() {\n        admin = msg.sender; // The account deploying the contract is the admin\n    }\n\n    // Admin function to verify a user\n    function verifyUser(address userAddress) public {\n        require(msg.sender == admin, \"Only admin can verify users\");\n        require(!users[userAddress].isVerified, \"User is already verified\");\n\n        users[userAddress].isVerified = true;\n        emit UserVerified(userAddress, users[userAddress].aadharNumber);\n    }\n\n    // Function to deny verification with reason\n    function denyVerification(address userAddress, string memory reason) public {\n        require(msg.sender == admin, \"Only admin can deny verification\");\n        require(!users[userAddress].isVerified, \"User is already verified\");\n\n        emit VerificationDenied(userAddress, reason);\n    }\n\n    // Function to check if a user is verified\n    function isUserVerified(address userAddress) public view returns (bool) {\n        return users[userAddress].isVerified;\n    }\n\n    // Function to get user details (for admin purposes)\n    function getUserDetails(address userAddress) public view returns (string memory, string memory, bool) {\n        require(msg.sender == admin, \"Only admin can view user details\");\n        User memory user = users[userAddress];\n        return (user.aadharNumber, user.name, user.isVerified);\n    }\n\n    // Function for users to request verification\n    function requestVerification(address userAddress, string memory aadharNumber, string memory name) public {\n        require(msg.sender == userAddress, \"Only user can request verification for themselves\");\n        require(bytes(aadharNumber).length == 16, \"Aadhar number must be 16 digits\");\n        require(bytes(name).length > 0, \"Name is required\");\n        require(!users[msg.sender].isVerified, \"User already verified or request already made\");\n\n        users[msg.sender] = User(aadharNumber, name, false);\n        emit VerificationRequested(msg.sender, aadharNumber);\n    }\n}\n",
  "sourcePath": "/home/varunharsha/Desktop/Project/contracts/KYCVerification.sol",
  "compiler": {
    "name": "solc",
    "version": "0.8.13+commit.abaa5c0e.Emscripten.clang"
  },
  "schemaVersion": "3.4.16",
  "updatedAt": "2024-10-20T01:41:47.899Z",
  "networkType": "ethereum",
  "devdoc": {
    "kind": "dev",
    "methods": {},
    "version": 1
  },
  "userdoc": {
    "kind": "user",
    "methods": {},
    "version": 1
  }
}